{
  "contractName": "moneymanagement",
  "abi": [
    {
      "inputs": [],
      "name": "money",
      "outputs": [
        {
          "internalType": "uint256",
          "name": "",
          "type": "uint256"
        }
      ],
      "stateMutability": "view",
      "type": "function"
    },
    {
      "inputs": [
        {
          "internalType": "uint256",
          "name": "num",
          "type": "uint256"
        }
      ],
      "name": "creditMoney",
      "outputs": [],
      "stateMutability": "nonpayable",
      "type": "function"
    },
    {
      "inputs": [
        {
          "internalType": "uint256",
          "name": "num",
          "type": "uint256"
        }
      ],
      "name": "debitMoney",
      "outputs": [],
      "stateMutability": "nonpayable",
      "type": "function"
    },
    {
      "inputs": [],
      "name": "getMoney",
      "outputs": [
        {
          "internalType": "uint256",
          "name": "",
          "type": "uint256"
        }
      ],
      "stateMutability": "view",
      "type": "function"
    }
  ],
  "bytecode": "0x60806040525f8055348015610012575f80fd5b5061030e806100205f395ff3fe608060405234801561000f575f80fd5b506004361061004a575f3560e01c80634ddd108a1461004e57806398e1b4101461006c578063c29cecdd1461008a578063f1bb3958146100a6575b5f80fd5b6100566100c2565b60405161006391906101d3565b60405180910390f35b6100746100c7565b60405161008191906101d3565b60405180910390f35b6100a4600480360381019061009f919061021a565b61010b565b005b6100c060048036038101906100bb919061021a565b610163565b005b5f5481565b5f60015f3373ffffffffffffffffffffffffffffffffffffffff1673ffffffffffffffffffffffffffffffffffffffff1681526020019081526020015f2054905090565b805f546101189190610272565b5f819055505f5460015f3373ffffffffffffffffffffffffffffffffffffffff1673ffffffffffffffffffffffffffffffffffffffff1681526020019081526020015f208190555050565b805f5461017091906102a5565b5f819055505f5460015f3373ffffffffffffffffffffffffffffffffffffffff1673ffffffffffffffffffffffffffffffffffffffff1681526020019081526020015f208190555050565b5f819050919050565b6101cd816101bb565b82525050565b5f6020820190506101e65f8301846101c4565b92915050565b5f80fd5b6101f9816101bb565b8114610203575f80fd5b50565b5f81359050610214816101f0565b92915050565b5f6020828403121561022f5761022e6101ec565b5b5f61023c84828501610206565b91505092915050565b7f4e487b71000000000000000000000000000000000000000000000000000000005f52601160045260245ffd5b5f61027c826101bb565b9150610287836101bb565b925082820190508082111561029f5761029e610245565b5b92915050565b5f6102af826101bb565b91506102ba836101bb565b92508282039050818111156102d2576102d1610245565b5b9291505056fea2646970667358221220ffaf9820c782b09ab40df97db64646d92c565523d1287d1db9eb31edfa6fa07b64736f6c63430008150033",
  "immutableReferences": {},
  "source": "// SPDX-License-Identifier: UNLICENSED\npragma solidity ^0.8.20;\n\n\ncontract moneymanagement{\n    uint256 public money = 0;\n    mapping(address => uint256) ownerToMoney;\n    function creditMoney(uint256 num) external  {\n        money = money + num;\n        ownerToMoney[msg.sender] = money;\n    }\n    function debitMoney(uint num) external  {\n        money = money - num;\n        ownerToMoney[msg.sender] = money;\n    }\n    function getMoney() external view returns (uint256){\n        return ownerToMoney[msg.sender];\n    }\n}",
  "sourcePath": "/home/amalendu/currentpro/money-management-solitdity/contract/contracts/moneymanagement.sol",
  "compiler": {
    "name": "solc",
    "version": "0.8.21+commit.d9974bed.Emscripten.clang"
  },
  "schemaVersion": "3.4.16",
  "updatedAt": "2024-04-19T13:32:10.477Z",
  "devdoc": {
    "kind": "dev",
    "methods": {},
    "version": 1
  },
  "userdoc": {
    "kind": "user",
    "methods": {},
    "version": 1
  }
}