{
  "_format": "hh-sol-artifact-1",
  "contractName": "moneymanagement",
  "sourceName": "contracts/moneymanagement.sol",
  "abi": [
    {
      "inputs": [
        {
          "internalType": "uint256",
          "name": "num",
          "type": "uint256"
        }
      ],
      "name": "creditMoney",
      "outputs": [],
      "stateMutability": "nonpayable",
      "type": "function"
    },
    {
      "inputs": [
        {
          "internalType": "uint256",
          "name": "num",
          "type": "uint256"
        }
      ],
      "name": "debitMoney",
      "outputs": [],
      "stateMutability": "nonpayable",
      "type": "function"
    },
    {
      "inputs": [],
      "name": "getMoney",
      "outputs": [
        {
          "internalType": "uint256",
          "name": "",
          "type": "uint256"
        }
      ],
      "stateMutability": "view",
      "type": "function"
    },
    {
      "inputs": [],
      "name": "money",
      "outputs": [
        {
          "internalType": "uint256",
          "name": "",
          "type": "uint256"
        }
      ],
      "stateMutability": "view",
      "type": "function"
    }
  ],
  "bytecode": "0x60806040526000805534801561001457600080fd5b5061032b806100246000396000f3fe608060405234801561001057600080fd5b506004361061004c5760003560e01c80634ddd108a1461005157806398e1b4101461006f578063c29cecdd1461008d578063f1bb3958146100a9575b600080fd5b6100596100c5565b60405161006691906101e5565b60405180910390f35b6100776100cb565b60405161008491906101e5565b60405180910390f35b6100a760048036038101906100a29190610231565b610112565b005b6100c360048036038101906100be9190610231565b61016f565b005b60005481565b6000600160003373ffffffffffffffffffffffffffffffffffffffff1673ffffffffffffffffffffffffffffffffffffffff16815260200190815260200160002054905090565b80600054610120919061028d565b600081905550600054600160003373ffffffffffffffffffffffffffffffffffffffff1673ffffffffffffffffffffffffffffffffffffffff1681526020019081526020016000208190555050565b8060005461017d91906102c1565b600081905550600054600160003373ffffffffffffffffffffffffffffffffffffffff1673ffffffffffffffffffffffffffffffffffffffff1681526020019081526020016000208190555050565b6000819050919050565b6101df816101cc565b82525050565b60006020820190506101fa60008301846101d6565b92915050565b600080fd5b61020e816101cc565b811461021957600080fd5b50565b60008135905061022b81610205565b92915050565b60006020828403121561024757610246610200565b5b60006102558482850161021c565b91505092915050565b7f4e487b7100000000000000000000000000000000000000000000000000000000600052601160045260246000fd5b6000610298826101cc565b91506102a3836101cc565b92508282019050808211156102bb576102ba61025e565b5b92915050565b60006102cc826101cc565b91506102d7836101cc565b92508282039050818111156102ef576102ee61025e565b5b9291505056fea264697066735822122012c2104adbd0863feed4f1bb05ccd18ca2bfeda45d128747cfc2006b26af2c9a64736f6c63430008180033",
  "linkReferences": {},
  "deployedLinkReferences": {}
}